0001FABIANO AVELAR           AVENIDA GUAIANAZES            999999999 0000150000A         
0002ELIANA MARTINES          AVENIDA SAO PAULO             888888888 0000050010E
0003VICENTE MARTINES         RUA SERGIO BUARQUE HOLANDA    44444444  0001000000X
0004TATIANE AVELAR           VILA PIRES                    55555555  0000001000I
0005JULIANO                  PARQUE SAO VICENTE            11111111  0000000001I
