0001FABIANO AVELAR           AVENIDA GUAIANAZES            999999999 0000100000
0002ELIANA MARTINES          AVENIDA SAO PAULO             888888888 0000050010
0003VICENTE MARTINES         RUA SERGIO BUARQUE HOLANDA    44444444  0001000000
0005JULIANO                  PARQUE SAO VICENTE            11111111  0000000001
