41838527818EDSON                    AVENIDA PORTUGAL              6666666666000000100020200113
00000000006PEDRO                    RUA JAPAO                     7777777777000002000020130810
00000000009TATIANE                  AVENIDA PEDRO AMERICO         8888888888000005000020200120
