00000000002GABRIELA                 AVENIDA SAO PAULO             3333333333000100000020200418
00000000005ELIANA                   AVENIDA PIRELLI               4444444444000008000020151104
00000000008VICENTE                  AVENIDA TABOAO                5555555555000000500020200413
