00000000001FABIANO                  RUA SERGIO BUARQUE HOLANDA    1111111111000005000020180520
00000000002GABRIELA                 AVENIDA SAO PAULO             3333333333000100000020200418
00000000004KARINA                   AVENIDA GUAIANAZES            2222222222000010000020181001
00000000005ELIANA                   AVENIDA PIRELLI               4444444444000008000020151104
00000000006EDSON                    AVENIDA PORTUGAL              6666666666000000100020200113
00000000007MARCOS                   RUA PROFESSORA ZELIA DULCE    3333333333000003000020200226
00000000008VICENTE                  AVENIDA TABOAO                5555555555000000500020200413
00000000009PEDRO                    RUA JAPAO                     7777777777000002000020130810
00000000010TATIANE                  AVENIDA PEDRO AMERICO         8888888888000005000020200120
