00000000006EDSON                    AVENIDA PORTUGAL              6666666666000000100020200113
00000000009PEDRO                    RUA JAPAO                     7777777777000002000020130810
68101297073TATIANE                  AVENIDA PEDRO AMERICO         8888888888000005000020200120
