00000000005GABRIELA                 AVENIDA SAO PAULO             3333333333000100000020200418
00000000008ELIANA                   AVENIDA PIRELLI               4444444444000008000020151104
79489715808VICENTE                  AVENIDA TABOAO                5555555555000000500020200413
