00000000004FABIANO                  RUA SERGIO BUARQUE HOLANDA    1111111111000005000020180520
00000000007KARINA                   AVENIDA GUAIANAZES            2222222222000010000020181001
45968135077MARCOS                   RUA PROFESSORA ZELIA DULCE    3333333333000003000020200226
