45968135077MARCOS                   RUA PROFESSORA ZELIA DULCE    3333333333000003000020200226
68101297073TATIANE                  AVENIDA PEDRO AMERICO         8888888888000005000020200120
79489715808VICENTE                  AVENIDA TABOAO                5555555555000000500020200413
